:020000043200C8
:10000000000001343D0D0012C30C0012C90C001297
:10001000C10C0012C90C0012C90C00120000000033
:10002000000000000000000000000000C90C0012E9
:100030000000000000000000C10C0012F1140012CA
:10004000E10C0012E10C0012E10C0012E10C0012B4
:10005000E10C0012E10C0012E10C0012E10C0012A4
:10006000E10C0012E10C0012000000000000000092
:100070000000000000000000000000000000000080
:100080000000000000000000000000000000000070
:100090000000000000000000000000000000000060
:1000A0000000000000000000000000000000000050
:1000B0000000000000000000000000000000000040
:1000C0000000000000000000000000000000000030
:1000D0000000000000000000000000000000000020
:1000E0000000000000000000000000000000000010
:1000F0000000000000000000000000000000000000
:1001000000000000000000000000000000000000EF
:1001100000000000000000000000000000000000DF
:1001200000000000000000000000000000000000CF
:1001300000000000000000000000000000000000BF
:1001400000000000000000000000000000000000AF
:10015000000000000000000000000000000000009F
:10016000000000000000000000000000000000008F
:10017000000000000000000000000000000000007F
:10018000000000000000000000000000000000006F
:10019000000000000000000000000000000000005F
:1001A000000000000000000000000000000000004F
:1001B000000000000000000000000000000000003F
:1001C000000000000000000000000000000000002F
:1001D000000000000000000000000000000000001F
:1001E000000000000000000000000000000000000F
:1001F00000000000000000000000000000000000FF
:1002000000000000000000000000000000000000EE
:1002100000000000000000000000000000000000DE
:1002200000000000000000000000000000000000CE
:1002300000000000000000000000000000000000BE
:1002400000000000000000000000000000000000AE
:10025000000000000000000000000000000000009E
:10026000000000000000000000000000000000008E
:100270000348044B834202D0034B03B11847704735
:10028000200C0034200C003400000000064B07490D
:10029000C91A891048BF0131491003D0044B0BB172
:1002A00001481847704700BF200C0034200C003470
:1002B0000000000010B5064C237843B9FFF7D8FFC3
:1002C000044B13B10448AFF300800123237010BD29
:1002D000980C00340000000050EA001208B5054BED
:1002E0001BB105490548AFF30080BDE80840FFF7A2
:1002F000CDBF00BF000000009C0C003450EA00128B
:10030000A3F5803A704700BF174B002B08BF134B73
:100310009D46FFF7F5FF00218B460F461348144A10
:10032000121A0CF063FF0E4B002B00D098470D4BB8
:10033000002B00D098470020002104000D000D483C
:10034000002802D00C48AFF300800CF05DFF2000C5
:10035000290000F00EFE0CF037FF00BF000008007F
:1003600000000000E70D001200000134980C00347A
:100370009C88003400000000000000001D4B1B6A38
:1003800013F4407F35D11C4BD3F89C35002B30DB68
:100390000B884A7AC3F30B0343EA82738A7A00F527
:1003A000003043EAC2738A784030120392B213439A
:1003B000CA78120402F4403213430A79920402F418
:1003C000402213434A79120502F4401213438A79FA
:1003D000920502F440021343CA79120602F07062D9
:1003E00013430A7A120702F040521343034A42F8B9
:1003F000203070470000BD520000B8520000B052DB
:100400007FB56A46224B1868596803C29868196913
:100410001060D86803AA03C25869694610600020BA
:10042000FFF7ACFF03A90120FFF7A8FF4FF47A7193
:10043000002007F021FC0021164A174B1360174BD0
:1004400019701749516001215970164991600821AE
:1004500099701549D1600921D9701449116107219A
:100460001971134951610521597112499161022194
:1004700099711149D1610421D97110491162062184
:1004800019720F49516203225A7207B05DF804FBDA
:10049000B8D20012B40C00341005B852DC0C003491
:1004A0001805B8523005B8523805B8524005B85250
:1004B0001405B8522005B8523405B8523C05B8525C
:1004C0006005B85210B586B06A46214B0124986980
:1004D000D96903C2186A996A1060586A03AA03C2EC
:1004E000D86A694610600020FFF748FF03A9012081
:1004F000FFF744FF4FF47A71002007F0BDFB0021A5
:10050000144B154A1970154915485160022159704C
:100510001449106091605061042105209970587150
:1005200011491248D1609061116208200621DC70E7
:1005300098710F4C0F4819720F491461D06107244C
:100540000920516203221C71D8715A7206B010BD85
:10055000B8D20012DC0C0034B40C00342005B852C0
:100560001C05B8523405B8523C05B8523005B85293
:100570004005B8523805B8526005B8527722014B91
:100580005A6570470000A0520722014B5A65704718
:100590000000A05208B500F037FA00F01CF800F097
:1005A00059F800F069F9BDE8084000F0AFB808B5A7
:1005B00000F02CFB00F04BF800F04AF800F0A4F833
:1005C000BDE8084000F056B908B5FFF7E3FFBDE805
:1005D0000840FFF7ECBF002208B511464FF4A060B9
:1005E00008F0E6FA00234FF4A0601A46194608F016
:1005F0007DF900224FF4A060114608F095FA01221F
:1006000000214FF4A06008F0D3FA012300211A461C
:100610004FF4A06008F06AF9012200214FF4A060B5
:1006200008F082FA022200214FF4A06008F0C0FA1C
:100630000323022200214FF4A06008F057F9BDE81F
:100640000840022200214FF4A06008F06DBA704704
:100650007047FEE710B52A4807F06AF9044608B16A
:10066000FFF7F7FF024601464FF4A06008F0E0FAFA
:10067000244B2246C3F80048214640F2015008F0BE
:10068000D7FA2146012240F2025008F0D1FA224660
:10069000214640F2045008F0CBFA2246214640F2AF
:1006A000055008F0C5FA2246214640F2065008F0EF
:1006B000BFFA2246214640F2075008F0B9FA224616
:1006C00021464FF4A16008F0B3FA2246214640F2D9
:1006D000095008F0ADFA2246214640F20A5008F0CF
:1006E000A7FA2146022240F20B5008F0A1FA224656
:1006F0002146BDE8104040F2145008F099BA00BFFE
:10070000DCDB00120000A9527047000010B5404C1D
:10071000022120463F4A07F03FF8032120463E4A87
:1007200004F5C07407F038F8002120463B4A07F072
:1007300033F8012120463A4A07F02EF802212046DC
:10074000384A07F029F803212046374A07F024F8F1
:1007500004212046354A07F01FF805212046344A77
:1007600007F01AF806212046324A07F015F807214B
:100770002046314A04F5C07407F00EF804212046E3
:100780002E4A07F009F8052120462D4A07F004F803
:10079000062120462B4A803406F0FEFF0021204629
:1007A000294A06F0F9FF02212046284A06F0F4FF04
:1007B00003212046264A06F0EFFF04212046254A61
:1007C00006F0EAFF05212046234A803406F0E4FFC4
:1007D00000212046214A06F0DFFF01212046204A61
:1007E00006F0DAFF022120461E4A06F0D5FF03215B
:1007F00020461D4A06F0D0FF042120461B4A06F081
:10080000CBFF2046BDE810400521194A06F0C4BFC1
:100810008000415218DD001250DD001248DF001246
:1008200080DF0012B8DF0012F0DF001228E00012B3
:1008300060E0001288DD001210DF001230DE0012CE
:1008400068DE0012A0DE0012D8DE001278E100128D
:10085000B0E10012E8E1001220E2001298E000127C
:10086000D0E0001208E1001240E10012F8DD0012B1
:10087000C0DD001270470000002310B51A464FF08B
:10088000804170200AF0A2F9002349491A467120DC
:100890000AF09CF9002347491A4640F621200AF045
:1008A00095F9002344491A4640F628200AF08EF9AB
:1008B000002342491A4640F62A200AF087F900230D
:1008C0003F491A4640F635200AF080F900233D4999
:1008D0001A4640F636200AF079F900233A491A46BA
:1008E00040F637200AF072F9002338491A4640F6DC
:1008F0004B500AF06BF9002335491A4640F64C502C
:100900000AF064F9002333491A4640F609600AF0F8
:100910005DF9002330491A4640F60A600AF056F99C
:1009200000232E491A4640F23D200AF04FF90023D9
:100930002B491A4640F245200AF048F9002329497C
:100940001A4640F246200AF041F9002326491A4689
:1009500040F247200AF03AF9002324491A464FF49E
:1009600012700AF033F9002321491A4640F2492057
:100970000AF02CF900231F491A4640F24A200AF0D7
:1009800025F900231C491A4640F24D200AF01EF9B1
:1009900000231A491A4640F24E200AF017F9BDE822
:1009A0001040002340F24F201A4615490AF00EB9B4
:1009B00001000040070A0040060A0040050A004006
:1009C000040A0040080A0040090A0040000D0040E7
:1009D000010D0040000E0040010E00402B020040BF
:1009E0000F02004011020040130200402A020040A2
:1009F00028020040290200400E0200401002004080
:100A000012020040FEE7000007B5B421002009F003
:100A100073F90AF009F909F053FA09F007F940B936
:100A200009F0F6F808F0C6F908F0BAF9012008F064
:100A3000D7F909F00FFC012009F0ECF908F0B8FC37
:100A400000236A481A461946009306F051FF002316
:100A500001211A466548009306F04AFF64233222BA
:100A60001221634808F0C8F9624B984202D1012074
:100A7000FFF7C8FF40F6B83008F0D0FB5E4B984255
:100A800002D10120FFF7BEFF002008F0DFF808F0D8
:100A900007FC0621012008F00DFC0621022008F0C9
:100AA00009FC0621032008F005FC0621042008F0BB
:100AB00001FC0621052008F0FDFB0021062008F0BE
:100AC000F9FB012008F062FF01204C4908F068FFA3
:100AD00010B10320FFF796FF42F21071012008F0D9
:100AE00069FF10B10320FFF78DFF022008F04EFFD1
:100AF0000220434908F054FF10B10320FFF782FFA2
:100B000042F21071022008F055FF10B10320FFF7E8
:100B100079FF0121084608F0F9F80021012008F0CA
:100B200009F9012008F098FF0021022008F0EEF8F2
:100B30000021022008F0FEF8022008F08DFF0221BB
:100B4000032008F0E3F80021032008F0F3F8032065
:100B500008F082FF0221042008F0D8F800210420C8
:100B600008F0E8F8042008F077FF0521084608F0AF
:100B7000CDF80021052008F0DDF8052008F06CFF15
:100B80000621084608F0C2F80021062008F0D2F835
:100B9000062008F061FF012008F04CF808F000F989
:100BA000012008F01DF9B421002009F0A5F8022168
:100BB000002008F07FFB134808F02AFC10B1042045
:100BC000FFF720FF104808F09DFC10B10420FFF74C
:100BD00019FF0121002008F099F80021084608F0CB
:100BE000A9F803B05DF804EB00F080B98000415231
:100BF0000024F40001004A0002004A006C030034A3
:100C0000CC03003458E20012400D0300014808F004
:100C100041BB00BF0024F40008B5FFF7D5FC00F08D
:100C200007F818B9BDE8084000F00CB808BD7047D7
:100C300008B50121024809F085F8002008BD00BF71
:100C4000D003003413B50024684601A9019400F0D4
:100C50002FF8019B63B1009B1B684BB1009B53F8BD
:100C6000240009F04DFA30B1019B0134A342F5D8BC
:100C7000002002B010BD0148FBE700BF00000206E3
:100C8000042908B50CD005D801390129064898BFB8
:100C9000002008BD082905D10121044809F052F8B7
:100CA0000020F6E70048F4E7FF004200D0030034DC
:100CB000024B036002230B60704700BFD80300346F
:100CC000FEE70ABEFEE77047EFF3148010F0020F54
:100CD0000CBFEFF30880EFF3098000F004B8704711
:100CE00001BEFEE7704708F0BBBF0000EFF31081C4
:100CF00072B6074AD2F8883043F47003C2F88830DD
:100D0000BFF34F8FBFF36F8F81F31088704700BF21
:100D100000ED00E0EFF3108172B6074AD2F8883098
:100D200043F47003C2F88830BFF34F8FBFF36F8F67
:100D300081F31088704700BF00ED02E008B5204B3A
:100D40001A6822F000421A601A6842F000421A60E3
:100D5000FFF7CCFFFFF7DEFF1A4B4FF41C7218466B
:100D600019490CF07FFA194A9060BFF35F8F184B56
:100D700083F30A8800F0F2F8164B17498B4212D31E
:100D80000020164B16498B4218D3FFF7BDFA18689E
:100D900050F82240586840F8224001329868824258
:100DA000F5D30C33EAE70022F8E71C6844F8220088
:100DB00001325C68A242F8D30833E4E70022F8E786
:100DC00000301052000000340000001200ED00E07E
:100DD00000F000345CEA001274EA001274EA0012B7
:100DE0007CEA0012704708B5FFF7FCFF08BD08B5A4
:100DF0000021022007F08AFF0021022007F09AFF5D
:100E0000022008F029FE0021032007F07FFF0021C7
:100E1000032007F08FFF032008F01EFE00210420AE
:100E200007F074FF0021042007F084FFBDE80840AC
:100E3000042008F011BE0021012008B507F038FF9A
:100E40000F280AD001210022084607F00DFF4FF0BD
:100E5000FF320021012007F007FF0021022007F0E8
:100E600027FF03280AD000220121022007F0FCFE00
:100E70004FF0FF320021022007F0F6FE0021032090
:100E800007F016FF3F280AD000220121032007F0B7
:100E9000EBFE4FF0FF320021032007F0E5FE0021BA
:100EA000042007F005FF03280AD0002201210420B6
:100EB00007F0DAFE4FF0FF320021042007F0D4FEE5
:100EC0000021052007F0F4FE01280CD000220121AA
:100ED000052007F0C9FEBDE808404FF0FF320021B1
:100EE000052007F0C1BE08BD00BF704710B5002047
:100EF00008F092FD114C124B20601860012008F0A0
:100F00008BFD104B104A186023681049136003F5DD
:100F1000742202F23F22B2FBF1F20D4903F2E733F1
:100F20000A704FF47A72B3FBF2F30A4A002013609E
:100F300008F072FD084B186010BD00BF18040034A3
:100F400020040034240400342804003440420F00FC
:100F5000300400342C0400341C04003408B5FFF7BE
:100F600046FFFFF768FFFFF7BFFFBDE80840FFF748
:100F7000BDBF08B5FFF750FE01F06CF805F0ACF806
:100F800000F07AFA00F0B2FA62B600F0C7F8FCE7B7
:100F9000F0B5154F3A78032A23D803680BB30369D9
:100FA000FBB190F82130E3B190F82030CBB12C2484
:100FB00003460E4D00F1280C02FB04542646186827
:100FC0005968083303C663453446F7D118682C23A3
:100FD0003060002003FB0255013285F822003A7090
:100FE000F0BD4FF0FF30FBE70C0F0034100F003462
:100FF0002DE9F8430027DFF89480214E98F800305F
:10100000FDB2AB4236D84FF080721E4BC3F8882138
:1010100001221D4B1A671B6FBDE8F883043394F857
:10102000240056F8233094F8202000FB0C300CF0FC
:1010300019F90B236B4353FA89F356F8231094F8EC
:1010400022C009F101090029E8D194F821300CF1FE
:10105000010C5FFA8CFC634584F822C008D1A36AB6
:1010600003B198472C23002203FB056383F8222059
:101070000137C3E72C244FF0000904FB0564D8E7CF
:10108000100F003400E100E00000A2520C0F003409
:1010900008B500F0A3F8C022074B084983F858238D
:1010A000074A9268C2F8A011BFF34F8F4FF08072C9
:1010B0009A60002008BD00BF00E100E0F10F0012BF
:1010C00000ED00E008B500F0A3F8002008BD08B569
:1010D00000F000F9002008BD0F4B37B51B7804461F
:1010E0000D46B3B143F24213ADF8003040F60D2384
:1010F00002216846ADF8043000F07EF9294620460A
:1011000000F07AF9022101A800F076F9002003B07E
:1011100030BD4FF0FF30FAE70010003438B5264CF0
:10112000264D28680121204400F076F960B92B682B
:101130005A1C012A2A60F4D9E21812F8012C0D2A4F
:10114000EFD1E35C0A2BECD12B68012B00D838BD22
:101150009A1EA15C0D29FAD1234413F8013C0A2BF5
:10116000F5D1002316491448A3540CF071F838B98E
:101170004FF49571134B1870134800F03DF907E0D8
:1011800012490D480CF064F828B901220D4B1A7071
:1011900000232B60DBE70E4907480CF059F820B913
:1011A000084B042118700B48E7E70B4902480CF084
:1011B0004FF80028ECD1F3E7C00F003404100034DE
:1011C0006CE2001200100034A0E2001274E200127F
:1011D00086E20012CCE3001294E20012002210B565
:1011E000094C114640F20C5007F022FD20464FF406
:1011F000007104F50034054A09F006F9236843F04C
:101200000043236010BD00BF0000A052D4E30012D1
:101210001022014B1A6470470000A25208B504491D
:10122000044807F009FA0122034BC3F8842108BDE2
:101230001C3200340000855200E100E038B50F4D4B
:101240000020D5F8084200F06DF9C4F30804C4F199
:101250000804844228BF04467CB10122084B094996
:101260001A700020A2B200F06DF922462846054906
:1012700007F093F8844200D001BE38BD00008552CB
:101280000832003411320034810710B506D500222F
:101290000C4B1A70BDE81040FFF7D0BF820601D595
:1012A00001BE10BD4307FCD501220749104600F0DE
:1012B000A3F9BDE810400122044B0349044807F09C
:1012C00049B900BF08320034093200341C320034FE
:1012D0000000855273B5002202214FF4806007F0B0
:1012E00067FC10230022009302210B234FF480603F
:1012F00007F05AFB314C324D002202214FF480603E
:1013000007F012FC0022022140F2024007F0C8FB65
:101310002A4620462B4907F05DF82B4B4FF400522C
:101320002A4900206B6300F0EBF84FF40072284963
:10133000012000F0E5F82368264E43F000432360C7
:1013400001213046244A06F027FA02213046234A7A
:1013500006F022FA22490B6F23F4F81343F48013AA
:101360000B670A6F1F4B22F4F85242F480520A674F
:10137000D3F8C4201C4922F4706242F40062C3F81E
:10138000C420D3F8C42022F0F00242F06002C3F877
:10139000C4200022154B83F82023154A9268C2F816
:1013A000C010BFF34F8F01225A602B4620461149CF
:1013B00002B0BDE8704007F0CDB800BF0000855214
:1013C0001C320034B0E400128912001208120034FA
:1013D000081000348003415278E4001240E4001207
:1013E00000004052000341521D12001200E100E0D3
:1013F00000ED00E0093200340A4608B5014600203D
:1014000000F0FAF8034B1B780BB9FFF717FF002029
:1014100008BD00BF0832003438B5054601200C462F
:1014200000F080F8A04206D322462946012000F0B1
:1014300089F8002038BD4FF0FF30FBE700210C4A4F
:101440000C4B10880331C000188050883C294FEAAB
:10145000C0005880908803F106034FEAC00023F8CB
:10146000020C02F10602ECD178210248FFF734BEEB
:1014700054320034CC32003400B58DB000211C222F
:1014800004A80BF0B3FE164B01A893F8E22020321B
:1014900003EB8202019293F8E320203203EB8202F5
:1014A000029293F8E420203203EB820303930D4B66
:1014B0009A1C05930433079306238DF8283041F2D4
:1014C0000243ADF82430084B06920B93FFF760FD02
:1014D000FFF7DEFDFFF7FBFD00200DB05DF804FB1C
:1014E000AC350034543200343D140012FFF7EABD2D
:1014F000024A136801331360704700BF443300345D
:10150000032810B509D80C235843054C2318215043
:1015100000209A80D880188110BD4FF0FF30FBE783
:10152000483300340C22064B02FB0030C38802898A
:10153000934237BF8188981A5818801A80B2704732
:10154000483300342DE9F84F144606468846FFF725
:10155000E9FFA0423AD3CCB10C235E43DFF874B06C
:101560000BEB06073B89B7F804901D19ADB2B5FB2C
:10157000F9FA1AF0FF0A0CD15BF80610224619445A
:1015800040460BF06FFE3B8923443B810020BDE8C1
:10159000F88FBAF1010F19D1A9EB03045BF806101B
:1015A000A4B21944224640460BF05CFEA5EB0902AA
:1015B00092B25BF8061008EB04000BF053FEBB88F8
:1015C000B5FBF3F203FB12553D81DFE74FF0FF302F
:1015D000DDE700BF483300340C22064B02FB00302D
:1015E000C28803899A4229BF8188981A5818801A9C
:1015F00080B27047483300342DE9F3471446019117
:101600000646FFF7E9FFA042019903D801BE4FF05B
:10161000FF301BE0002C39D00C235E43DFF87090C4
:1016200009EB0607F888B7F804800519ADB2B5FBD9
:10163000F8FA1AF0FF0A0CD159F80630224618447D
:101640000BF010FEFB882344FB80002002B0BDE8B5
:10165000F087BAF1010FD9D159F80630A8EB000490
:10166000A4B21844224601910BF0FCFD0199A5EBB0
:10167000080292B259F8060021440BF0F3FDBB8832
:10168000B5FBF3F203FB1255FD80DEE72046DDE7F4
:1016900048330034000000000230800803D00130DD
:1016A0000238FCD100BF00BF7047EFF3108072B664
:1016B000704780F3108870470120704700487047DA
:1016C00000001606004870470000160608B505F031
:1016D000D4FE08B1007E08BD0120FCE708B505F086
:1016E000CCFE003818BF012008BD08B5002205F067
:1016F000C4FE00B1407E08BD08B5002205F0BDFE65
:1017000020B10378022B0CBF4069006908BDFFF7C8
:10171000F3BF0000F8B5154606460C46FFF7ECFF90
:10172000B5FBF0F300FB1353074663B92544A5420C
:1017300001D8002006E02146304605F0DBFE3C449F
:101740000028F4D0F8BD0148FCE700BF02001606EF
:101750002DE9F04115461E4607460C46FFF7CCFF23
:10176000B5FBF0F300FB1353804683B9361B2544C9
:10177000A54206EB040201D8002006E021463846C7
:1017800005F0D4FE44440028F2D0BDE8F0810148C1
:10179000FBE700BF0200160610B414461A462346A3
:1017A0005DF8044B05F090BEC8B10E4B43610E4B83
:1017B00083610E4BC3610E4B03620E4B43620E4BB3
:1017C00043600E4B83600E4BC3600E4B03610E4BA8
:1017D00083620E4BC3620E4B0360002070470D48BE
:1017E000704700BF99170012511700121517001209
:1017F000BD160012C5160012B9160012F916001215
:101800000F170012EB160012DD160012CD16001293
:10181000783300340300160630B50022441CFF2044
:10182000043993B2994200D130BDE35C584008239B
:1018300045B24000002DC0B203F1FF33B8BF80F0C5
:10184000310013F0FF03F3D10132EAE710B504468B
:10185000FFF7E2FF2268034B904214BF18460020B6
:1018600010BD00BF01003E0910B54C88CA68A3082E
:1018700000EB83000B88097A634301FB0323984242
:1018800028BF104610BD10B50A7A012A0BD90B8863
:101890004C88C96863431944814286BF02F1FF3214
:1018A00003FB0200C01A10BD70B50C468B694A8854
:1018B000DE6A014605461868B047E37A73B128B17D
:1018C000A3692946DE6962881868B047A06929467D
:1018D0008669044B62880068B04708B9002070BD73
:1018E0000148FCE7AC33003403003E092DE9F84F12
:1018F000C768467A044647615EB93D46B246B0F8CD
:101900000080037A03FB08F8D04504D1A37A73BBA7
:101910006761BDE8F88FD5F804B0B4F80290B3451C
:1019200007D949462846FFF791FF002804BF2F46F4
:101930005E464FEA990905EB89050AF1010AE3E7DA
:10194000D5F804B0B4F80290B34507D94946284603
:10195000FFF77CFF002804BF2F465E464FEA990937
:1019600005EB89050AF1010AD045E9D1D0E74FF02E
:10197000000AF9E773B54B7A06460C461BB1002303
:10198000336002B070BD4D69498828460191FFF768
:101990005DFF019908B96B68F2E7A37A6BB1227A0F
:1019A0002388019153438A08534305EB8305284656
:1019B000FFF74CFF01990028EDD020460191FFF779
:1019C00095FF646901992046FFF740FF0028D6D1B2
:1019D0006368D5E7F8B5054616460C4609B933489D
:1019E000F8BD0028FBD0002AF9D01C220021204697
:1019F0000BF0FCFBA968A661E1602B796372B36808
:101A0000306898477F28627A06D82AB97F23B3FBCB
:101A1000F0F3013313FB00F080B2012A08BF024645
:101A20002E6818BF4208A2F110036382731EB3FB35
:101A3000F2F3A96801339BB2608022826660238042
:101A400009B91B48CCE7002EFBD02A79012AF8D827
:101A5000EE79012EF5D895F806C0BCF1010FF0D84B
:101A60006E79771E092FECD80CFB0666C2F1010CCB
:101A70000CFB06224343A7695A43BE6A3868B04745
:101A80000028DED0EB79002BA9D0627A1AB96A79E6
:101A90002272AA7902E00122227200222046A2725A
:101AA000E372FFF723FF00209AE700BF00003E0922
:101AB00002003E0910B5044686B00A480191FFF7BE
:101AC00073FE019958B92268A3680392626803A85B
:101AD000CDE90423034AFFF77DFF06B010BD0020C7
:101AE000FBE700BF7C3300342DE9F04F8FB01C467C
:101AF0008046894613460392002A00F0158103446C
:101B0000049304996368994200F20E81B9F1000FC1
:101B100000F00A81667A86B1A069E1684B464469A3
:101B200041440068A047031E834B024618BF1A4673
:101B3000019201980FB0BDE8F08F238831464846E6
:101B400008930BF053FB21460DA8FFF713FF049BEE
:101B5000218A013BB8FBF1F2B3FBF1F3C3469B1AB8
:101B600006930133E56809936388CDF8149002FB6E
:101B7000035502960196099B029A934228D8214662
:101B80006069FFF780FE4FF0000A0746089B534547
:101B9000CFD921463846FFF767FE61880746029194
:101BA000FFF754FE002800F09980A37A029963B1F0
:101BB0002588237A5D434D4325F003053D4428469F
:101BC000FFF744FE002800F08A800AF1010ADDE7F1
:101BD000237A012B1E4609D921466069FFF753FE7F
:101BE00000270546B4F800A0BA4551D8238A0299C7
:101BF000BBFBF3F203FB12B20792069A28468A4215
:101C000088BF079A618888BFA3EB020A0A9398BF2E
:101C1000DDF80CA00B91FFF719FE0A9B074680B177
:101C2000A27A002A4BD022880B997243880842433B
:101C300005EB82052846FFF709FE00283FD13F4FFC
:101C40000A9BA069079952461944436929441E46D4
:101C50000068059BB047237A012B04D8284621460B
:101C6000FFF702FE0546039BD344A3EB0A0303934D
:101C7000059B53440593324B9F4204D0019B002B9C
:101C800008BF3B461F46029B0133CDE9017372E753
:101C900021462846FFF7E8FDE3686188C31AB3FBD5
:101CA000F1F34A08B3FBFAF10AFB113353435B45E6
:101CB000054602D81A445A4598D8013794E7524647
:101CC000002105980BF092FA6B682BB92F681C4B1A
:101CD000002F18BF1F46BEE7194FBCE73D46A86856
:101CE000049B83427FF671AFEA6802449045BFF4DB
:101CF0006CAF80451BD20021A0EB0803049ED4F8F2
:101D000018C0B24228BF324605F1100E804538BFD8
:101D1000121ADCF81450DCF800004B4428BFA2EB88
:101D200008027144A84750E7064B019301E70023DE
:101D3000A8EB0001E2E700BF02003E0904003E09F3
:101D400001003E0900003E092DE9F04F83461C4684
:101D500016468FB0002A00F0718113186268934212
:101D600000F26C81002900F06981657A0191002DF3
:101D700043D063884FF00009B0FBF3F503FB150572
:101D800006EB050808F1FF38B8FBF3F8E768DFF861
:101D9000B0A2074408F101087F1BC84504D80025FC
:101DA00028460FB0BDE8F08FA069A54BD0F814B05D
:101DB000394662880068D847B4F802B00199ABEBA5
:101DC000050BB34528BFB3460AEB05005A460BF096
:101DD00049FA21463846FFF767FD05460028DFD15E
:101DE000019B67615B4401936388A6EB0B069B082C
:101DF00007EB830709F10109CFE7628A731EB3FB82
:101E0000F2F3214607930DA801330893DFF83082DF
:101E1000FFF7B0FD6769029521463846FFF724FDBC
:101E20000D9D074601350021628885480D950BF010
:101E3000DDF9079B0299628AC8E9015B8B4208BF02
:101E4000324680480199C8F80C200BF00BFA214665
:101E50003846FFF718FDB4F802A0054651464FEA90
:101E6000DA09FFF7F3FC50B9A069228AD0F814A070
:101E700008EB890305EB89010068D0470FE0A37ADE
:101E80006BB1227A2388514653434FEA9A02534357
:101E900005EB83052846FFF7D9FC0028E4D021464E
:101EA0003846FFF7F0FCB4F80090D8F804309945B4
:101EB000039346D9E568B9F1000F00F0AB80E36801
:101EC0006288FB1AB3FBF2F3B3FBF9F009FB1033A2
:101ED0004FF0000951084B43D2080493CB180693E6
:101EE00008EB820309934B46039ACDF81490013A0C
:101EF0000A92039A05998A422AD16188504803932D
:101F0000FFF78AFC2146C8F800003846FFF7CCFCF2
:101F1000054600287FF444AFA27A039B002A7BD1B8
:101F2000628A0199B61A11449344029A01910132CE
:101F300002920299089A67618A423FF66DAF1D4688
:101F40002EE72146FFF790FCCDF80C900546B2E74E
:101F50000A9A05998A4233D9618828460B91FFF77E
:101F600075FC034680B3A27A0B99002A41D0237AEC
:101F7000B4F800A003FB0AFA8B0803FB0AFA05EB8E
:101F80008A0A5046FFF762FC034693BBDAF8080062
:101F9000069B83422CD9DAF80C20049B00EB020C40
:101FA000634525D2218AB0FBF1F301FB130E049B9C
:101FB00083420BD8069B634500D21A1A00210CE01D
:101FC0004FF00109C246E0E7AA46DFE7A1EB0E01A8
:101FD0004FF0000E049BACEB0302099B0AF1100AC0
:101FE00051447344B9F1000F0ED018460BF03AF982
:101FF0000023284621460B93FFF736FC059B054638
:10200000013305930B9B74E7A069D0F814A0006816
:10201000D047EDE70C4B70E7227A208821465043E9
:10202000628803939208504307EB8000FFF73CFC63
:10203000039B054600283FF473AFB1E6034DAFE6BE
:10204000AC330034BC33003403003E0900003E09C9
:1020500000F040BD0A4B0B4A1A600B4A5A600B4A0B
:102060009A600B4ADA600B4A1A610B4A5A610B4AB2
:102070009A610B4ADA610B4A1A620B4A5A6270473C
:10208000143C0034512000123D2600124D2600124F
:10209000592600126B2600121D2B00122D2C001247
:1020A000992D00125D2D0012E52D0012002807DB8E
:1020B00001234109034A00F01F00834042F8213008
:1020C000704700BF00E100E000280CDB0122064958
:1020D000430900F01F008240203341F82320BFF362
:1020E0004F8FBFF36F8F704700E100E0002808DBDF
:1020F00001224309034900F01F008240603341F888
:102100002320704700E100E0074B1A6C22F4F852DC
:102110001A641A6C22F01F021A64022203F581333A
:102120005A6001225A60704700004052064A136C00
:1021300023F4F85343F4D8531364136C23F01F03B0
:1021400043F01B031364704700004052074B1A6CA6
:1021500022F0F8521A641A6C22F4F8121A64082257
:1021600003F581335A6004225A60704700004052E0
:10217000064A136C23F0F85343F0D8531364136CDE
:1021800023F4F81343F4D81313647047000040524B
:10219000074B5A6C22F4F8525A645A6C22F01F0210
:1021A0005A64202203F581335A6010225A60704726
:1021B00000004052064A536C23F4F85343F4D853BA
:1021C0005364536C23F01F0343F01B0353647047A5
:1021D00000004052034B0268D3F8083143609B1A59
:1021E000836070470000A052D0ED027A90ED057A2E
:1021F000F8EEE77A67EE877A90ED067AC0ED037A1B
:1022000067EE277AC0ED047A70470000324B70B554
:10221000DB6A324C324DB4F97A002B672B6FFFF733
:1022200065FFD5F80831C4F8C430A36B5A1C012BE4
:10223000A26301D1FEF7A2F92A4C2B4A216992F838
:10224000E030C943294D61F38203297943F38000CB
:1022500060F3020129712649264882F8E0300969B5
:102260000678C1F38011017003F0010316B109B9BA
:1022700083F0010392F8E010F7EE007A63F30001B7
:102280001D4B82F8E01093ED017AB4EE677A1023CB
:10229000F1EE10FA14BFC4F88430C4F8883092F814
:1022A000E0306FF3410382F8E03003F0A7FFD5E997
:1022B000023213434FF0200310480CBFC4F884309F
:1022C000C4F88830FFF786FF1C38FFF78DFFBDE8A4
:1022D00070401C30FFF788BF0CDB0012AC350034B7
:1022E0000000A05200044152D8410034083B0034A1
:1022F000000241523C040034C839003470360034C6
:10230000174BB3F88C20D3ED077A07EE102AB8EEFE
:10231000C77A144A27EE277AD2ED016A66EE877AE9
:10232000FCEEE77A17EE903A0F2B28BF0F23012B14
:1023300038BF012307EE903A92ED006AF8EEE77A93
:1023400002EB830191ED010AA6EE677AD1ED027AE4
:1023500066EE876A77EEC07AA6EEA70A704700BFDE
:10236000AC350034C0020034F8B58A4CE36A01335E
:10237000E362DB0700F10D81874B884DD3F808310C
:10238000C4F8A83095F83433022B13D1F7EE007A55
:10239000BFEE007A824A834BD2F80816D2F8102793
:1023A00099819A80804A126E12F4807F47FE277AC4
:1023B000C3ED027A7D4A7E48D2F89010D2F890C0E0
:1023C0000B096FEA11116FEA5C1601F0010101704F
:1023D000784806F001060670D2F89000764F6FEA52
:1023E0009010764A00F0010E82F800E03A7883EA15
:1023F0005C1361F3000266F3410271496EF38202DD
:102400003A700A78434003F00103002A40F0B58097
:10241000002B40F0B5800B7094F8E23094ED037A15
:10242000203334F823306748C3F5006307EE903A51
:10243000F8EEE77A67EE877A94F8E330C0ED017A38
:10244000203334F82330C3F5006307EE903AF8EEFA
:10245000E77A67EE877A94F8E430C0ED057A2033A6
:1024600034F82330C3F5006307EE903AF8EEE77ACC
:1024700067EE877AB4F8A030C0ED097A07EE903A9B
:1024800094ED047AF8EEE77A67EE877AB4F8903044
:10249000C0ED217A07EE903AF8EEE77A67EE877A98
:1024A000B4F8A430C0ED257A07EE903AF8EEE77A5A
:1024B00067EE877AB4F88830C0ED297A07EE903A53
:1024C00094ED057AF8EEE77A67EE877AB4F89C30F7
:1024D000C0ED2D7A07EE903A94ED067AF8EEE77AA1
:1024E00067EE877AC0ED357AFFF70AFF80ED310A93
:1024F00003F070FED4ED0A7A334C294B94ED497AFF
:1025000027EE877ABCEEC77A17EE100A94ED4A7A66
:1025100027EE877ABCEEC77A17EE101A94ED4B7A45
:1025200027EE877ABCEEC77A5861D861C3F81411D8
:10253000C3F81C1183ED857A83ED877A95F8DC2248
:10254000012A13D194ED4C7AD4ED4D6A27EE877AA7
:1025500067EEA67ABCEEC77AFCEEE77A17EE102A91
:10256000C3F8142417EE902AC3F81C2504F036FF94
:10257000BDE8F8401548FFF72DBE002B7FF44BAFA8
:10258000054A1348D2F8086202680660B21AFA6077
:1025900041E7F8BDAC3500340000A052483C00349F
:1025A0000000A152E88300340040AA5200034152C7
:1025B0009C3600349D360034BC3B00349E360034DB
:1025C00094360034D8410034C839003454360034CD
:1025D00098360034012310B5084C2365236D084B51
:1025E000B3F97600FFF782FD064BE364A36C1B0C86
:1025F0001B04A364BDE81040FFF7B6BE008018526C
:10260000AC350034600D0034012310B5084C236153
:102610002369084BB3F97400FFF768FD064BE360CC
:10262000A3681B0C1B04A360BDE81040FFF79CBE11
:1026300000801852AC350034E80C003408B5FFF7C0
:1026400034F8014BD86708BDAC350034014BD86F66
:10265000FFF72FB8AC35003408B5FFF755FDFFF78D
:1026600075FDBDE80840FFF793BD08B5FFF75EFDB7
:10267000FFF77EFDBDE80840FFF79CBD10B507F0F1
:102680005DFB044C0004206007F04CFB23681843FA
:10269000206010BD3C3C003410B52523002486B0DA
:1026A00068461049ADF80030019407F07FFA262300
:1026B0000D4902A8ADF80830039407F077FA0B4AE9
:1026C00004AB92E8030083E803001846084907F0CA
:1026D0006DFA084B084A5A674C22A3F87A2006B0D4
:1026E00010BD00BF09260012D5250012F4E4001227
:1026F0000D220012AC350034250026000D4A9FED56
:102700000E7AD2EDBC7A67EE877A92EDB87AF1EE66
:10271000046A67EE877A094B094A86EEA77A1A613E
:102720005A614FF06652074883ED037A9A61DA6185
:1027300005F0FEB8483C003400008045AC3500345C
:1027400000005C3CDCDB001238B54FF4A0630125CF
:10275000094C0A4AA4F8E230094B84F8E45093F893
:10276000DC12084BA94218BF1346074A136098476A
:1027700084F8E05038BD00BFAC35003401040012CD
:10278000483C0034C5040012380400342DE9F84FE9
:102790000025254E254A264BDFF8B8B0B046052463
:1027A000AF1805EB030A05EB0B095AF8041B386850
:1027B00004F0E6FE59F8041B57F8040B1D4B41606A
:1027C00018F8011B013C203103EB810114F0FF04D8
:1027D000164A174B8160E8D11435282D06F10506FD
:1027E000DCD101252146144A1448154C04F03EFF63
:1027F000144B154EE360A36829463340A360A561DE
:102800002368124A43F0004323600C4804F02EFF73
:102810000F4BE364A36C3340A364A565236C43F0C2
:1028200000432364BDE8F88FDC0C003498020034C8
:1028300070020034AC350034D8D3001200001852B6
:1028400000801852E80C00340000FFFFD8D40012BA
:10285000600D0034B40C003400222DE9F041114623
:102860004FF4A06007F056F907EE900AF8EE677A89
:102870006E4C012200214FF4A060C4ED007A07F0F5
:1028800049F907EE900AF8EE677A022200214FF428
:10289000A060C4ED017A07F03DF907EE900AF8EE6A
:1028A000677A6268624B94ED007A9A60614A624B83
:1028B000C4ED027AC3ED007AD2ED137A67EE277A7F
:1028C000FCEEE77A17EE903A23F001034FEA530843
:1028D00007EE908AF8EEE77A116D63624B43C4ED20
:1028E0000A7A07EE903AF8EE677AD16D23634B438C
:1028F000C4ED0D7A07EE903AF7EE006AF8EE677ACB
:102900000027C4ED107AC6EE877AE363536D4B4E11
:10291000C4F8C030136E4FF48271494A3046C4ED9A
:102920002F7AC4ED367AC4F8DC302762E762A763F9
:1029300007F05CFF40F20511424A304607F056FFAF
:10294000236B06F58035013BC5F8203440F20311B6
:10295000C5F820353C4AC5F810843046C5F81885BE
:10296000C5F81484C5F81C8507F040FF236B4FF4AD
:102970008071013BC5F82033344AC5F810833046D6
:1029800007F034FF636A40F201115A089B082A627B
:1029900030462B612E4AAB616B61EB6107F026FF7D
:1029A000636A4FF481715A089B08C5F820213046AC
:1029B000C5F81031274AC5F81831C5F81431C5F8E3
:1029C0001C3107F013FF636A39465A089B08C5F8A3
:1029D0002022C5F81032C5F81832C5F81432C5F8EF
:1029E0001C32E36B1C4A30465D1E07F0FFFEE36BB2
:1029F0000221013B3362194A3046356107F004FD7C
:102A00000121174A304607F0FFFC4FF48371154A45
:102A1000304607F0F9FC144A40F20711304607F03F
:102A2000F3FC124B124ADA63BDE8F081AC35003496
:102A3000BC3B0034483C0034E88300340000A05222
:102A4000E8D4001294D500125CD8001208D9001204
:102A5000B4D9001260DA00120CDB0012E0D70012C9
:102A600074D700129CD6001208D70012D841003447
:102A7000C039003410B5144C14492368204643F083
:102A80000103236007F0A6FD114A537891781B01DA
:102A9000090201F4E06103F070030B43117801F0C7
:102AA00007010B43D178090301F4E0410B4311798D
:102AB0005279090401F4E02112050B4302F4E0020B
:102AC0001343636610BD00BF0040AA524CD80012E9
:102AD0000803003408B5FFF7D1FDFFF7DDFDFFF770
:102AE0000DFEFFF731FEFFF751FEFFF7B5FEFFF7D2
:102AF000C1FF084BD3ED157AFCEEE77A17EE900A8A
:102B000004F000FC044A92F8E03043F0010382F83C
:102B1000E03008BD483C0034D841003470B53D4D2C
:102B20003D4CFFF78BFDB5F97400FFF7BFFA236842
:102B3000102643F000432360B5F97600FFF7B6FA9C
:102B40002368B5F97A0043F000432360FFF7AEFA3B
:102B50000121324B04F50804D3F8002642F000426C
:102B6000C3F80026C3F84066D3F8002742F00042BD
:102B7000C3F800272A4A91600022AA63EA62D3F8C8
:102B8000002442F00042C3F80024D3F8002542F0AC
:102B90000042C3F80025D3F8002342F00042C3F8F6
:102BA00000231A6842F000421A60D3F8002142F074
:102BB0000042C3F80021D3F8002242F00042C3F8DB
:102BC0000022236843F000432360FDF7DDFC266408
:102BD000D4F8003243F00043C4F80032C4F8406235
:102BE000D4F8003143F00043C4F800310D4BC4F871
:102BF000406193F83433012B06D180220A4B5A608E
:102C0000BDE87040FFF722BD022B02BF8022064BB9
:102C10009A60F5E7AC350034000018520000A1526C
:102C20000040AA52483C00340002415238B5FFF738
:102C300005FD364B93F83433022B60D18022344BA0
:102C40005A60344B0021D3F80021334D22F000426A
:102C5000C3F80021D3F80022304C22F00042C3F820
:102C600000221A68B5F97A0022F000421A6003F5D2
:102C70008033D3F8002222F00042C3F80022D3F8B8
:102C8000002122F00042C3F800211A6822F000421D
:102C90001A60D3F8002322F00042C3F80023D3F8CF
:102CA000002522F00042C3F80025D3F8002422F0CA
:102CB0000042C3F800241A4A9160D3F8002722F09A
:102CC0000042C3F80027D3F8002622F00042C3F8E0
:102CD0000026FFF7F9F92368B5F9760023F00043E1
:102CE0002360FFF7F1F92368B5F9740023F000437E
:102CF0002360FFF7E9F9BDE83840FFF7A7BC012BD7
:102D000002BF8022024B9A609BE700BF483C003420
:102D1000000241520000A052AC35003400001852AD
:102D20000040AA524FF4805210B5094B094CC4E937
:102D30001223094B04F158011B6804F14800236574
:102D4000FEF7B8FE0123606584F8443010BD00BF73
:102D500001010001AC3500343404003413B50C4CCF
:102D6000014694F844301BB90190FFF7DBFF01994D
:102D7000606D50B94FF4B262064BFEF7E5FF606537
:102D8000B0FA80F0400902B010BD0020FBE700BFA0
:102D9000AC3500340436003437B5104D02AB03E9CE
:102DA000030095F8443014460BB9FFF7BBFF686D7C
:102DB00078B94FF4B2622146094BFEF795FE68657B
:102DC00038B92268009B9A4203D16268019B9A42FB
:102DD00002D0002003B030BD0120FBE7AC35003449
:102DE00004360034014B93F8E0007047AC350034F2
:102DF000816170470A461649D2ED017A91ED167A43
:102E000067EE877A034610B5C0ED077A1088DFEDCC
:102E1000117A07EE100AB8EE477AF6EE006A27EE4E
:102E2000277AD1ED027AD2E9020167EEA67AD2EDD5
:102E3000046A67EEA67AC7EE276A03F1280403F155
:102E40000C02C3ED086A84E803009A6110BD00BF5C
:102E5000483C003483F9223E002380ED000A80EDD7
:102E6000010A80ED050A8360C360036170470000BA
:102E700010B5D0ED027A2DED028B90ED038A90ED26
:102E8000077A77EEC87AA7EE878A80ED038A83698E
:102E900090ED087AD3ED007AF0EEE77AD0ED0A8A69
:102EA00067EE877AF4EEE87AF1EE10FA044607D47A
:102EB000D0ED0B8AF4EEE87AF1EE10FA78FEA78AEC
:102EC000D4ED057A94ED000AC4ED098A30EE670A64
:102ED00000F030FF084BA0EE288AD3ED167A94ED6F
:102EE000050A84ED048AA8EE270A00F023FFBDEC52
:102EF000028B84ED050A10BD483C0034034610B532
:102F000083ED000A1346303002F10C04F1EC016A43
:102F100092ED007AC6EE877AE0EC017AF3EC016A72
:102F200092ED007AC6EE877AA342C0ED027AEDD127
:102F300010BD30B500F1180387B001F10C0451F851
:102F4000045B43F8045B52F8045BA1429D60F6D138
:102F500020EE007AD0ED087A27EE876A77EEA77A1E
:102F6000D0ED075AD0ED066A67EE677AE5EE806A23
:102F7000E5EEC07A76EE866ACDED017AD0ED0B7A79
:102F8000D0ED0A5ACDED006A8DED026AD0ED096AE6
:102F900027EE276A77EEA77AE5EE806A27EE677A52
:102FA00076EE866AA5EEC07A694603AACDED036A7D
:102FB0008DED047A8DED056AFFF7A0FF07B030BDF7
:102FC000C0ED010AD1ED006AC0ED026A92ED007A0F
:102FD00080ED047AF7EE007A91ED015A87EEA66A49
:102FE000C7EE854A36EE246A80ED035A26EE206A43
:102FF00066EE856A7FB5D2ED015A8DED016A80EEED
:10300000A66AC7EE876A8DED026A87EEA56A27EE8B
:10301000257A76EE866ACDED046AC7EE876AC0ED42
:10302000055A694603AACDED000ACDED037ACDED30
:10303000056AFFF77EFF07B05DF804FB90ED0D7A9F
:10304000D0ED0C7A77EE877A90ED0E7A77EE877A6C
:1030500080EE277A80ED127A80ED137A7047D0EDFA
:10306000127A90ED107A80ED150AA7EEC70AD0ED1E
:10307000136A90ED116AB0EE407AA6EEC67A90ED32
:103080000D6AC0ED137A27EE860AD0ED0C7AA7EE12
:10309000270AD0ED0E7AA6EEA70AC0ED146A80EDDD
:1030A000127A80ED160A7047034BD3ED017A20EEB9
:1030B000270A83ED070A7047C8390034094BF0EE40
:1030C000400A93EDBE7A93ED160A13B5064C27EE2F
:1030D000000A94ED071A00F049FE84ED070A02B0D9
:1030E00010BD00BF483C0034C83900340D4A38B523
:1030F0000D4DA2F57D7494ED150A2846F7EE000AF1
:10310000A2F10801FFF75CFFD4EDFF0A20EEA01A40
:10311000D4ED161A05F15C00B0EE410ABDE8384066
:1031200001F01CBD3C400034A036003410B52DED3C
:10313000028B9FED0B8A0B4CB0EE480A2046FFF73E
:103140007DFF04F15C0001F005FD074B83ED0E8A65
:1031500083ED0F8A83ED108ABDEC028B10BD00BF9A
:1031600000000000A0360034C839003410B5094B07
:10317000094C93F8E83394ED0D0A012B02D107486E
:10318000FFF76DFF84ED0E0AB0EEC00A84ED0F0A62
:1031900010BD00BF483C0034C8390034A0360034AC
:1031A00010B5044C044894ED070A01F0E6FC84EDE8
:1031B000100A10BDC8390034FC36003408B5FFF7DA
:1031C000D5FFBDE80840FFF7EBBF000038B51E4C47
:1031D0002DED028B04F23C43D3ED001A04F234438C
:1031E000D3ED007A04F22C43B0EE408A60EE277AE9
:1031F000D4ED160A93ED000A144DB1EE611A67EE94
:10320000A00A28EE000A284600F0EAFB04F58863CD
:10321000D3ED001A04F58763D3ED007AD4ED160AD6
:1032200004F5866468EE277A94ED000A05F1200023
:1032300028EE000ABDEC028BBDE83840B1EE611A01
:1032400067EEA00A00F0CCBB483C00345437003491
:1032500010B5054C204600F0BEFB04F12000BDE88F
:10326000104000F0B8BB00BF54370034F8B5394FF8
:10327000394C97F84C316BB904F1600094ED170AA2
:1032800000F034FC04F1980204F1600104F1BC0088
:1032900000F090FC314BD4ED260AD3ED046AD3ED57
:1032A000037A94ED277A93ED051A60EEA77AA6EEDD
:1032B000871AD4ED0D6A03F2444393ED007AC4ED0E
:1032C000227A84ED231A67EEE67A21EE261A67EE5B
:1032D000877A21EE071A224D94ED200A05F1B400F9
:1032E000C5ED2C7A85ED2B1A00F083FB95ED2C1A99
:1032F000D4ED270A94ED210A05F1D40000F079FB02
:10330000D5F8D030174EC4F8A030D5F8F030A6F17B
:103310006C01A6F12C003246C4F8A43000F05FFC2A
:1033200096E8030006F1080383E8030097F84C31A0
:103330007BB1D4ED357A95EDAE7A77EE877A95ED5F
:10334000AF7AC4ED357AD4ED367A77EE877AC4ED6C
:10335000367AF8BDBC420034C8390034483C0034E9
:10336000A0360034943A003470B5204D204B95EDD2
:10337000097AD5ED107A67EE877AC3ED007AD5ED3C
:10338000117A95ED166A67EE877AD5ED0F6AC3ED6F
:10339000017AC6EE267AC3ED027AD5EDC07A67EEE1
:1033A000877A144C144BC4ED0D7A1E68D5ED190ABA
:1033B00095EDC30A04F13800B047D5ED190A95ED33
:1033C000C30A04F14800B04700220023C4E90423E3
:1033D00040F2833241F6FF537C21C4E906230023E7
:1033E0004022C4E90813C4E90A2370BD483C0034F4
:1033F000603B0034083B003400E50012002100204F
:103400000022074BC3E90201C3E90001002183F850
:103410003020044B1A75044AD960126A9A617047C9
:10342000083B0034603B0034483C00340B4BD3ED88
:103430002E7A93ED2D7A67EEA77AE7EE077AC3ED41
:10344000327A074B93ED037AD3ED026A77EEC77AAF
:10345000A7EEA67A83ED037A704700BFC83900341F
:10346000603B0034F8B5524C524D94ED030A08F01D
:1034700023FDD4ED007AB4EEE70AF1EE10FA84ED04
:10348000040A85ED310A4C4E67DB237D002B64D1A5
:1034900001232375736AA361484C96EDC27AD4ED7B
:1034A0000D7AB4EEE70AD5ED4E7AF1EE10FAF4EEAD
:1034B000C77AACBF01220022F1EE10FA237862F342
:1034C0000003237057DB3E4B04F138001B6898471C
:1034D0003C4B3D481F68B847237860F38203237054
:1034E0003A48B84795ED4F7AD6EDC47AB4EEE77A0C
:1034F00095ED0F7AD6EDC57AF1EE10FAB4EEE77AD3
:10350000ACBF01220022F1EE10FA4FEAC00343EAF9
:103510004203ACBF0122002243EA0213AA7843EA25
:10352000C2136A7843EA0223228803F4CD7322F49B
:10353000CD7213432380D4E90001D4E9023203435E
:103540000A43D4E90810194010400143C4E902328B
:1035500025D0022384F83030F8BDD4ED017AB4EEE2
:10356000E70AF1EE10FA97D5237D012B94D10023C1
:103570002375336A8FE796EDC17AF4EEC77AF1EEE0
:1035800010FA03D80E4B04F148009FE704F138000D
:1035900000F042FC04F1480000F03EFC98E7D4E95A
:1035A000060103400A401343D6D00123D2E700BFEF
:1035B000603B0034C8390034483C0034083B0034D8
:1035C000FCE4001204E50012403B0034503B0034A0
:1035D000094B10B5D3E90012D3E90A40214002405B
:1035E000C3E90012D3E9021202402140C3E90212EA
:1035F000002283F8302010BD083B003410B5094B81
:1036000093F800313BB9084CA3699847236A0748EF
:10361000984763699847064A936843F004039360A8
:1036200010BD00BFBC420034143C0034483C0034A0
:10363000803B003410B50A4B93F800314BB9094C6C
:10364000A3699847022007F0E7FD00F027FF6369B0
:103650009847054A936843F02003936010BD00BF6C
:10366000BC420034143C0034803B003410B50A4B9B
:1036700093F800314BB9094CA3699847012007F032
:10368000CBFD00F00BFF63699847054A936843F050
:103690001003936010BD00BFBC420034143C0034E2
:1036A000803B003438B50A4B93F800514DB9094CB2
:1036B000A3699847284607F0AFFD00F0EFFE636965
:1036C0009847054A936843F00803936038BD00BFEC
:1036D000BC420034143C0034803B003410B5084B2D
:1036E00093F8003133B9074CA369984700F0D6FE30
:1036F00063699847044A936843F00103936010BDDF
:10370000BC420034143C0034803B003470B50F4D93
:1037100095F800619EB90E4CA369984723689847B5
:1037200002F0D2FB0B4B05F58670D3ED160A93ED34
:10373000BD0A00F031F9636985F809619847064AC6
:10374000936843F00203936070BD00BFBC42003435
:10375000143C0034483C0034803B0034064B074A9C
:10376000DA60074A1A61074A5A61074A9A61074AAA
:10377000DA61074A1A627047803B0034DD36001276
:103780000D370012FD350012A53600126D360012FD
:10379000353600120022024BC3E90122704700BFF8
:1037A000803B00342DE9F04100254FF00108284608
:1037B000104C276808FA05F263683A42A16803EAE8
:1037C000020610D056B948B91343636021EA0201DA
:1037D00004EB8503DB68A160984701200135062DC5
:1037E000E7D1BDE8F081002EF8D011421CBF934311
:1037F0006360F3E7803B00340022024BC3F80421EE
:10380000704700BFA0360034F8B54A4E4A4D96F8CE
:1038100050342DED028B012BD5ED1F8AAF6F40F098
:10382000868006F2544393ED007AD5ED4E7A95EDFD
:10383000290A67EE877A20EE400AA7EEA70AB5EEBE
:10384000C00AF1EE10FA48BF9FED3C0A3C4C84EDF3
:103850003E0A08F031FBD5ED287AF0EEE77A394BD5
:1038600084ED3F0A94ED418A30EE670AD3ED007A89
:1038700084ED400AA0EE278A95ED260A324B20EE11
:10388000400AD3ED067AA7EEA70AB5EEC00AF1EE1C
:1038900010FA48BF9FED290A08F00EFB96ED0A7A50
:1038A000DFED2A7A67EE277AB4EE670AF1EE10FAB6
:1038B000B4EEC70A48BFF0EE407AF1EE10FA84ED9C
:1038C000440ACCBFB1EE470AB1EE400A30EE680AB6
:1038D000B4EEC08AF1EE10FA77EEE87A24D4B4EEB2
:1038E000678AF1EE10FA37FE888AB5EEC08A9FED3E
:1038F000137AF1EE10FA48BFB0EE487A4CBF0123BC
:103900000023C4ED437A84ED420A84ED418A84EDBC
:10391000457A78EE878A84F8F430C5F88070C5ED72
:10392000218ABDEC028BF8BDB0EE408ADDE7C5F818
:103930008070F4E7483C0034C839003400000000CF
:10394000A0360034A4400034603B0034CDCC4C3D64
:1039500090ED017A67EE007AFDEEE77A17EE903A85
:103960001E2BA8BF1E2323EAE37307EE903A90EDC7
:10397000006AF8EEE77A00EB8302A7EEC60AD2ED02
:10398000026AD2ED037A27EE007A77EEE67AE7EE66
:10399000276AB0EE660A7047C0EE207A0023FCEE7C
:1039A000E77A80ED000AC0ED010AC0ED027AC3603B
:1039B00070470023C3607047D0E90223934238BFA9
:1039C0000133C3607047D0E90202824234BF002055
:1039D000012070477047002303618361C361704712
:1039E00080ED000AC0ED010A80ED021AC0ED031A55
:1039F000704730EE600A90ED017AD0ED047AE0EE87
:103A0000077A90ED007A80ED051AA0EE071AC0ED56
:103A1000047A90ED027A77EE817AB4EEE77AF1EEED
:103A200010FA80ED060A06DB80ED077A37EE417A60
:103A300080ED047A704790ED037AB4EEE77AF1EE08
:103A400010FAF1D9C0ED077A7047D0ED007A80ED19
:103A5000051AA7EEA01A80ED070A30EE410AC0ED64
:103A6000060A80ED040A7047002380ED010A036016
:103A7000704790ED007AD0ED017A30EE077AF6EEDD
:103A8000006AE7EE267A80ED000AC0ED017AB0EE1A
:103A9000670A704790ED017AD0ED027A77EEC77A27
:103AA0009FED047A67EE877A0368C1ED017A0B60B7
:103AB000704700BF3ACD133FD0ED017ADFED0A6ABF
:103AC00067EEA67A90ED007AFEEE006AB0EE676AC5
:103AD000E7EE267A97EE266A81ED007A81ED016A9B
:103AE000C1ED027A704700BFD7B35D3FB5EEC00AA3
:103AF000BFEE007AF1EE10FADFED2A7A67FE877AE0
:103B00009FED297A40EE077AFDEEE77A9FED277A5E
:103B1000F8EEE76A2649A6EEC70A91ED1B7A20EE79
:103B2000077ABCEEC77A17EE102AF8EE476A91EDD5
:103B30001A7A17EE903A10B501EB8204C2F15B02DB
:103B400001EB8201A6EEC70AD1ED005AD4ED1C6A42
:103B500003F00303022B20EE267A60EE257A15D0BF
:103B6000032B1AD0012B35EEC77A0BBFF1EE666A34
:103B700036EEA76AB0EE476AF0EE477A08BF76EEF7
:103B8000E77A80ED006AC0ED017A10BDF1EE666A59
:103B900036EEE76A77EE657AF3E737EE656A76EE3A
:103BA000A77AEEE70000000083F9223FDB0FC93F50
:103BB000483C0034D0ED015AD1ED006A90ED006A26
:103BC000D1ED017A26EEE57AA6EE277A67EEA57AA0
:103BD000E6EE267A82ED007AC2ED017A7047D0EDEA
:103BE000015AD1ED006A90ED006AD1ED017A25EE1F
:103BF000A67AA6EE277A67EEA57AE6EE667A82EDD9
:103C0000007AC2ED017A7047B5EEC00AF1EE10FA03
:103C1000F5EEC00ACCBF01220022F1EE10FA08B581
:103C2000CCBF0123002343EA4203012B4AD0022BDD
:103C300017D070EEC07AF5EEC07A7BB3F1EE10FAD1
:103C40002E4805DDBDE8084080EE200AFFF780BE63
:103C500080EE800AFFF77CFEDFED297A37EEC00A9E
:103C600011E070EE207AF5EEC07AF1EE10FA0BDD7D
:103C7000F1EE600A214880EE800AFFF769FEDFED71
:103C8000207A30EE270A08BDB1EE400A1B4880EECC
:103C9000200AFFF75DFEDFED1B7ADFE7F1EE10FA99
:103CA000164808D580EE200AFFF752FEDFED157AA0
:103CB00030EE670AE7E780EE800AFFF749FEDFEDA6
:103CC000127ACBE770EE207AF5EEC07AF1EE10FAB8
:103CD00009D5F1EE600A094880EE800AFFF738FE48
:103CE000DFED077AE4E7B1EE400A044880EE200AEF
:103CF000FFF72EFEB1EE400AC5E700BFB83D003425
:103D0000DB0FC93FDB0F4940DB0FC9BFB5EEC00A6F
:103D1000F1EE10FA08B5064803D4BDE80840FFF7F5
:103D200017BEB1EE400AFFF713FEB1EE400A08BD20
:103D3000403E0034B5EEC00ABEEE007AF1EE10FA55
:103D4000F6EE007A67FE877A9FED067A40EE077AF4
:103D5000FDEEE77A9FED047AF8EEE77AA7EEC70A60
:103D6000704700BF83F9223EDB0FC940B4EEE01A72
:103D7000F1EE10FA0BDB31EE401AB4EEE01AF1EE80
:103D800010FA58BFF0EE410AB0EE600A704731EE0B
:103D9000001AB4EE601AF1EE10FA48BFF0EE410AD4
:103DA000F2E7000090ED007AD0ED016AB4EEE67A19
:103DB000F1EE10FAD0ED027A0CDBB4EEE77AF1EE18
:103DC00010FA13D9F4EEE76AF1EE10FA14DD0F4B96
:103DD00018460EE0F4EEE76AF1EE10FA0FD9B4EEF1
:103DE000E77AF1EE10FA0DDD094BF1E740F2012020
:103DF000084B0B60106070474FF48133E8E74FF4D5
:103E00008173E5E740F201230248F2E70001020076
:103E10000100020002000100C368002B18BF013B33
:103E2000C36070470023036043608360C360036125
:103E300043617047D0ED007AB7EE007A77EE877A6B
:103E4000C0ED007AD0ED017A77EE807AC0ED017A8C
:103E5000D0ED027AE0EE007AC0ED027AD0ED037A7E
:103E6000E0EE207AC0ED037AD0ED047A77EEA07A06
:103E7000C0ED047AD0ED057AE0EEA07AC0ED057AC7
:103E8000704710B52DED068BD0ED019A90ED009A9C
:103E900090ED048A90ED027A69EEE97A28EE480AFC
:103EA000E9EE077A90ED057A68EE698AA9EE070ACD
:103EB00090ED037AE9EE078A88EEA7AAC0ED067AAC
:103EC00080ED070AC0ED088A80ED09AA27EE800A76
:103ED000044607F0F1FFA9EECA8AC8EE807AC4ED65
:103EE0000B7AC8EE097ABDEC068BC4ED0A7A10BDD8
:103EF00038B5184D9FED187AD5ED027A174C67EE5C
:103F0000877A94ED027AB5F8383367EE877A07EE50
:103F1000103AB8EEC77AC7EE876A04F1200005F5BB
:103F20004E71C4ED156AFEF765FF04F12801A1F199
:103F30000800FEF75DFFD5EDD37A9FED090AD5EDB8
:103F4000160A04F1100080EE270ABDE83840FFF79A
:103F500023BD00BF483C0034DB0F4940BC3B00346C
:103F6000920A863F022310B50A4C9FED0B0AC4E962
:103F700000334FF0FF33E3604FF07E5304F1200035
:103F80002365FEF769FF04F11000BDE81040FFF75C
:103F900010BD00BFBC3B00340000000010B52D4C2C
:103FA00023680BB1072B05D12B4A137843F020036C
:103FB000137010BD04F11000FFF705FD002833D089
:103FC0000023A3622268254B03EB8203D3ED007A22
:103FD000234B93EDD57A77EE877A6368C4ED087A40
:103FE0009A4216D094ED090A37EEC00AFFF7A2FEF6
:103FF000B5EEC00AF7EE007AF1EE10FABFEE007AE5
:10400000236A67FE877A1748C4ED147A6362FFF764
:10401000D0FC236814486360FEF72AFF134BA26AA2
:104020009A62626B1A65C4E704F11000FFF7C4FCE2
:10403000E368002BC6D0D4ED157A94ED147A27EE00
:10404000277A07EE903AF8EE677AC7EE276AC4ED52
:104050000A6AB7E7BC3B0034083B00346004003414
:10406000483C0034CC3B0034DC3B0034C8390034DD
:104070004FF44032CC4BCD492DE9F04FC3E900124B
:104080004FF08242CA499A605964CA49CA4A59657E
:104090000F21DA601A61C94A01279A61C84AD965B5
:1040A000DA61C84A00211A62C74AC84DDA62C84AB2
:1040B000DFF8A4B31A63C74ADFF8A0E35A63C64A1D
:1040C000C64EDA634FF07E521F65C3F88412C3F800
:1040D0008C12C3F89412C3F89C12C3F8A412C3F84C
:1040E00014B0C3F824E09D621A64C3F88022C3F8B8
:1040F0008822C3F89022C3F89822C3F8A022C3F8FC
:10410000A822C3F8AC12C3F8FC62B54E4FF00A09FE
:10411000C3F80063B34E0024C3F80C63B24E4FF0F3
:104120007C5CC3F81063022683F818634FF47A7638
:10413000F5EE007AC3E9C896DFEDAC6A4FF07F5622
:104140009FEDAB7A4FF48048AA48DFF814A3C3F878
:10415000C802C3F8CC02A848C3F8B412C3F8D80206
:10416000A648C3F8BC12C3F8E002A548C3F8C412BD
:10417000C3F8E402A348C3F8ECC2C3F8F002A248B3
:10418000C3EDBD7AC3F8F802C3F82C039F48C3ED12
:10419000D06AC3F83C03C3F84403C3F8B022C3F8A1
:1041A000B822C3F8C022C3F8D0A2C3F8D42283F83F
:1041B000DC4283F82843C3F83053C3F8486383EDE7
:1041C000D37AC3F85413C3F8A813C3F8AC139049B7
:1041D000A3F85883C3F8B4138E49DFF88882C3F874
:1041E000B8138D49C3F87883C3F8C813DFF8788211
:1041F0008A49C3F88083C3F8D013DFF870828849F6
:10420000C3F88483C3F8DC13DFF864828549C3F8FC
:104210008883C3F8E013DFF85C828349C3F85C034A
:10422000C3F86403C3F8BC03C3F8F403C3F8F8038A
:104230007E48C3F874C3C3F8D483C3F8D8C383F8E3
:10424000E873C3F8EC1303F5806CC3EDD86A83ED13
:10425000DB7AC3EDDC7A83F85043C3F86863C3F8B4
:10426000A423C3F8B023C3F8E4B3C3F8F01383F86E
:104270000494DFF80492CCF8000003F5816CCCF8CC
:10428000009003F2144CCCF800A0DFF8F09103F298
:10429000244CCCF8002003F5856CCCF8009003F298
:1042A000444CDFF8DC91CCF8002003F5896CCCF8A5
:1042B0000090DFF8D09103F24C4CCCF8009003F260
:1042C000C44CCCF80080DFF8C08103F5996CCCF8C1
:1042D0000080DFF8B88103F2CC4CCCF80080DFF826
:1042E000B08103F59A6CCCF80080DFF8A88103F266
:1042F000DC4CCCF80080DFF8A0C103F59C6883F8A3
:104300005074C8F800C04A4F03F2E448C3F8FC03F5
:10431000C8F8000003F254400760464F03F58B6075
:10432000076003F58C60444F026003F2644007604D
:1043300003F58D60C0F800E003F58F6001603F4831
:1043400003F27C4108603E4803F5906108603D48F7
:1043500003F28C41086003F593610D603A4803F263
:10436000EC41C1F800C003F59E6183F8D44483F8A2
:10437000D84483F8E844086003F2F44133480D6000
:1043800003F59F610860324803F2FC410860314840
:1043900003F5A061086003F2045103F5A2630A600B
:1043A0001E60BDE8F08F00BF483C0034213F52F44E
:1043B0003333733F00606A46F0A22F3A6666E63EEA
:1043C00014AEC73ECDCC2C41D7B35D410000E03FD9
:1043D0008570D14464141D45000020400000D8427F
:1043E0009A99993F9A99993E0000B442E4CB1641BC
:1043F00052775641FF5F6A460000A04000004041EE
:104400009C5349360AD7233C8570D143959EEB4394
:104410005B120B3CD1A66237969E6B45378DA74346
:10442000A48C38379C5349371D431346DB0FC940D2
:10443000907BEC3EE4CB96419999493F959E6B4425
:10444000DD7EBC4334898445CDCCCC3C0000603F4C
:10445000378D274464149D44A69BC43B00006040F4
:10446000000020410000C041CDCC4C3E0AD7A33C07
:104470006F12033B378DA742DD7EBC421D4393453F
:104480006766063F3F0AD73E378D27429A99193E05
:104490008FC2F53BCDCCCC3DCDCC4C3D70B5544C12
:1044A0002DED068BD4ED036A94ED047AC6EE877A7F
:1044B0009FED507AF4EE477AF1EE10FAD4ED156ADA
:1044C00048BFF0EE477AB7EE008AC4ED0E7AC8EE28
:1044D000267AC4ED167AD4ED147AF8EE677A67EE90
:1044E000A67A88EE277A84ED137A94ED177AB8EEDF
:1044F000477A86EE876A88EE067A84ED197A94ED1B
:10450000B97A37EE077ADFED3C8A27EE277AC4EDD9
:10451000127A84ED186A84EDBA7AC4ED1A8A0025FD
:10452000364B04F17006E36607EE905AB8EEE70AE0
:1045300020EE280A07F0C0FD0135402DA6EC010A47
:10454000F2D19FED2F9A002584ED5C9A84ED7E9A3E
:104550002C4B2D4EC4F87431C4F8FC3107EE905A40
:10456000F8EEE78A68EE898AB0EE680A07F0C6FCC2
:10457000A6EC010AB0EE680A07F072FC0135202DA6
:1045800086ED210AEAD194F88C35DA070DD4D4ED02
:10459000DE7A9FED1E7A27EE877A84EDC17A9FED51
:1045A0001C7A67EE877AC4EDC27A9E075CBFD4EDB1
:1045B0000D7A77EEA77A94F8043458BFC4EDC57A23
:1045C0000D2BD4ED027ADFED139AB6EE00AA0CD8CB
:1045D000012241F281719A400A421DD112F05E0F10
:1045E00040F0B0810D2B00F0B981B0EE697A22E085
:1045F000483C0034AE47813FDE40CC3C9D6D2042BC
:104600000821043D0000F841C03D00343333333FFE
:104610006666A63F00000000D84AD4EDCB6AB2EC33
:10462000016A66EE8A6A92ED007A66EEA76A36EE55
:10463000476A86EE267A0C2B84EDC77A02D0062BC9
:1046400040F09481012394EDE07AD4EDE16AFCEE30
:10465000E77A27EE266A77EE26AAB0EE469A84F825
:10466000343317EE903AD4EDE27A7AEEA7AA67EEE9
:10467000868AA6EEA79A38EEEA0AA7EE279A20EED7
:10468000000A84EDE49A38EE499A03EB4303A9EE5D
:10469000090AA4F83833C4EDE3AAC4EDE58A07F0AB
:1046A0000BFCF0EE490A84EDDF0A3AEEE80AFFF768
:1046B000ABFAB34884EDE60AB1EE400AFFF716FA0A
:1046C00094F88C25D5060FD4D4EDEF7AD4ED056A95
:1046D00087EEA67A67EEA77A84EDF07A87EEA67A5F
:1046E00067EE0A7AC4EDF17A94ED027A94ED054A08
:1046F00067EE077A9FEDA36A67EE847AC6EE276AB3
:1047000094EDF76AD4EDF87AD4F89833500726EE92
:10471000866AC4F8CC3366EEA76A0FD49A4B194662
:10472000F1EC017A67EE865A67EEA67AC1ED005A7F
:10473000D3ED035A67EEA57AC3ED027A934B27EEC9
:10474000047A1946A1EC016AC1ED006ADFED906AB6
:10475000C6EE877A94EDF97A67EE877A1107C3ED92
:10476000027AD3ED044A94ED036A94ED047AD4ED11
:10477000066A0DD466EE247AC3ED057A67EE247AD4
:10478000C3ED067A66EEA47AC3ED077AC3ED087A24
:10479000DFED805AD4EDDE7A7F4B67EEA57A1946BD
:1047A000E1EC017A9206C1ED007AD4ED165A0BD4F1
:1047B00067EE877A84EE275AD3ED077A65EE277A7B
:1047C00067EEA57AC3ED087A37EE066A26EE0A6A26
:1047D00086EE265AC5EE257AF5EEC07AB6EE006A68
:1047E000F1EE10FABEEE004A66FE043A77EEA37AC6
:1047F000FDEEE77AF8EEE77A684B67EEA57A1A469F
:10480000E2EC017AF2EE047A25EE275AC5EE257A1B
:10481000F5EEC07AF1EE10FA26FE046A77EE867A9B
:10482000FDEEE77AF8EEE77A67EEA57AC2ED007A58
:10483000DFED5B7A66EEA76A53ED017A66EEA76A52
:10484000D3ED0B7AC3ED026A27EE877AD3ED036AC4
:1048500083ED0C7A26EE877AD4ED0E6A83ED0D7A1D
:1048600067EE8A7A36EEC87A67EE877A87EEA67A9E
:10487000D3ED057AC7EE876AB5EE006AC3ED066A26
:1048800067EEA76A66EE866A86EE876A83ED0A7A25
:1048900083ED076A93ED047AB0EE006AC6EE076A0C
:1048A00027EE076AC3ED126AC8EE066AC3ED136A03
:1048B000C7EE246A88EE277ADFED3A7A67EE277A28
:1048C000C3ED146A00229FED386ADFED386A9FED70
:1048D000387AC3ED099A83ED0E8AC3ED0F9AC3EDC2
:1048E000109A83ED118AC3ED157AA83307EE902A4A
:1048F000F8EEE75AF0EE667AE5EE867A67EE877AAA
:104900000132192AE3EC017AF0D12A4B9FED2A7A81
:1049100053ED1A7A67EE877A1A4688EE277ABDEC4D
:10492000068B264983ED047A42F8041B2449116062
:10493000244A9A60244ADA60244A43F8702C43F8E7
:104940006C2C70BD224A94EDCC6AF2EC016A92EDB7
:10495000007A76EEC76A86EE867A6CE61D4AB2EC7D
:10496000017AD2ED006A37EE667A64E60B2B03D04B
:10497000052B01D0002366E6022364E60C410034D7
:10498000E43F0034ABAA2A40504000346040003479
:10499000ABAAAA3F3ACD133F84400034B440003460
:1049A000A9DE174000002042555505410000614432
:1049B000DB0FC940C0410034CDCCCC3D265F0D4457
:1049C000265F8D438FC2353E6EBFC842CADD103EA2
:1049D000904000343441003437B54FF44032104930
:1049E000104DCDE9001202A9EB690F4A11E903004D
:1049F00098470D4C30B9FFF73BFBFFF74FFD2046C2
:104A00002B6A9847094BE2889A806FF06F029A717F
:104A10000122DA7109221A7200225A7203B030BDE3
:104A2000213F52F4143C0034483C00343C3C0034F8
:104A3000114BDFED126A93ED047AD3ED037A77EE32
:104A4000C77AB0EEE76AB4EEE66A93ED057AF1EE66
:104A500010FA54BFC7EE276ADFED096A094B54BF4D
:104A600001220022C3ED296AC7EE876A83F8A020DD
:104A7000C3ED2A6A704700BF483C00345F7089303C
:104A800000000000A036003410B52DED048B1A4B49
:104A90001A4C93F8A02094ED1D8A32B90023E367E5
:104AA00084ED1E8ABDEC048B10BD28EE089AB2EE90
:104AB000000AD3ED298A29EE000AA8EEA80A07F019
:104AC000FBF9F5EE007A38EEC00A20EE270AA0EED8
:104AD000409A84ED1F0AB0EE490A07F0EDF9B5EEF1
:104AE000C08AFFEE007AF1EE10FAB7EE008A28FED7
:104AF000278A20EE088AD3E7A0360034C83900346C
:104B0000F7EE006A10B5124B2DED028BD3ED2A7A29
:104B100090ED017AB0EE668AA7EEC78A90ED007A32
:104B200028EE078AB0EE667A67EE887AA7EEA77A53
:104B300027EE077A86EE870AA7EEA70A0C4607F04B
:104B4000BBF920EE080ABDEC028B84ED000A10BD13
:104B5000A0360034002303604360704760EE217A82
:104B6000C0ED027AC0EE807AC0ED037AC1EE007A21
:104B700067EEA17AC0ED047A7047D0ED007AD0EDEF
:104B8000046A90ED017AA6EEA77AD0ED036AA7EE4B
:104B9000E60A80ED017AD0ED026A30EE477AE7EE60
:104BA000267AB0EE670AC0ED007A704790ED007A81
:104BB000D0ED017AD1ED016AE6EE877AC1ED027A95
:104BC0007047D0ED037A90ED027AD0ED006A37EEAF
:104BD000677AE7EE267AC0ED037A70471E4A1F4BCC
:104BE000D2ED167A92EDB27A27EE877A83ED107ABB
:104BF00083ED147A83ED187A92EDB37A67EE877AB3
:104C000092ED197AC3ED207AC3ED247AC3ED287AA8
:104C1000D2EDB47A67EE877AC3ED2C7AD2EDB57A0D
:104C200067EE877AC3ED307AD2EDB67A67EE877A8F
:104C300092EDBD7AC3ED347AD2ED157AF1EE046AC5
:104C400067EE877A86EEA77A4FF07E5283ED1F7A61
:104C5000034B5A60704700BF483C0034D8410034D1
:104C6000C83900340022084BDA64DA65DA66C3F822
:104C70008C20C3F89C20C3F8AC20C3F8BC20C3F838
:104C8000CC20C3F8DC207047D8410034F8B5794B0C
:104C9000794C93F8DC2294ED1D6A012A00F09D8086
:104CA000626804F140016264626903F52070626524
:104CB000626A6266FFF77AFF04F1500103F5227021
:104CC000FFF774FF04F1600103F52470FFF76EFF36
:104CD000D4ED127A94ED1C7A77EEC77AC4ED127A8D
:104CE000D4ED167A77EEC67A94ED1E7AC4ED167A74
:104CF000D4ED1A7A77EEC77AC4ED1A7A5F48FFF7D7
:104D000060FF1030FFF75DFF1030FFF75AFF5C4D7A
:104D1000E36C05F1B406C5F8A830E36D3146C5F87B
:104D2000AC30E36E05F1A800C5F8B030FEF7B2FE76
:104D3000544B93F84C314BB9534B93F844312BB946
:104D400096E8030005F1BC0383E803004F4B504F86
:104D50005B6A98470646002872D04E494E48FFF7D6
:104D600025FF10310830FFF721FF10310830FFF721
:104D70001DFFA1F12000FFF724FFA1F11000FFF7B4
:104D800020FF0846FFF71DFF94ED236AD4ED276A44
:104D900094ED2B7A76EE267ADFED405A77EE877A1D
:104DA00067EEA57A85ED426AC5ED436A85ED447AE2
:104DB00036EE676A76EEE76A37EE677A3849C5ED10
:104DC000487A01F1380085ED456AC5ED466A85ED02
:104DD000477AFEF75FFE3E70F8BD03F5227021466C
:104DE000FFF7E4FE04F11001FFF7E0FE94ED027A14
:104DF000D4ED067A37EE467A77EEC67AF1EE676A38
:104E0000C4ED067A77EEC77AC4ED0C6AC4ED0D7A6C
:104E100084ED0E7AE36B84ED027A1B68DAB204EB60
:104E20008202126BA264C3F30722C3F3074304EBAD
:104E3000820204EB8303126B1B6BA265A3665DE722
:104E40003B78002BC7D0174B174C94E8070083E83A
:104E500007000022C5F8202103F10C0594E80700A3
:104E600085E80700114A2C3B92E8030083E8030021
:104E7000B1E700BF483C0034D84100341842003448
:104E8000C8390034BC4200344C850034143C003432
:104E90008004003458420034E03E0034ABAAAA3EFD
:104EA000A43A0034D03A0034B03B0034A43B003480
:104EB0003F4A404808B502F1B001FFF777FE02F122
:104EC000C0010830FFF772FE02F1D0010830FFF791
:104ED0006DFE02F1B000FFF774FE02F1C000FFF7B3
:104EE00070FE0846FFF76DFED2ED377A324BD2F8EE
:104EF000BC10C3ED027AC3F83811D2F8CC10C3F855
:104F00003C112E4991F8280301282CD091EDC77A45
:104F1000F4EEC77AF1EE10FAC3ED047ABFEE007A30
:104F2000F7EE007A92F8E020C2F3400098704CBF90
:104F30000120002012F0010F47FE277AC3ED017A0D
:104F4000D87091F80424D3ED017A062A0ED87AB1EC
:104F500093ED047A67EE877A91EDCC7A67EE877AE3
:104F6000C3ED1A7A08BDDA681A61EAE70D2A14D08F
:104F700093ED047A67EE877A91EDCB7A67EE877AC4
:104F8000B6EE007AC3ED067A67EE877A91ED027A83
:104F900067EE277AC3ED057AE4E7094A92ED697A6C
:104FA00027EE277A83ED067A92ED687AF0E700BF64
:104FB000D8410034F83E0034C8390034483C00344D
:104FC0004C850034174A184B92F8DC22D3ED1D7A39
:104FD000012AD3ED1F6A16D093ED1C7A93ED126A65
:104FE000A6EE267A83ED1C7A93ED167AE7EE267A02
:104FF00093ED1A7AC3ED1D7AD3ED1E7AE7EE267A89
:10500000C3ED1E7A704793ED066A93ED027A37EE90
:10501000067AB6EE006A27EE067AE7EE267AC3ED48
:105020001D7A7047483C0034D841003401220023E7
:10503000F0B500F10C0400EB8306B4EC017AD6ED78
:10504000027AB4EE677AF1EE10FA55B202F101027B
:10505000C8BF2B46062AEED1C35693FBF2F40B7061
:1050600002FB1434043393FBF2F502FB15330022E8
:10507000154616460134013364B25BB210F902C022
:1050800057B2644516D0634508BF3D460132062A33
:10509000F4D100EB850300EB8602D3ED027A92EDAA
:1050A000027AB4EEE77AF1EE10FAACBF83574357B9
:1050B0004B70F0BD3E46E9E710B51E4C1E4804F2A9
:1050C0006C4393ED000AD4ED160AFEF765FC04F577
:1050D0008E6393ED000AD4ED160A1848FEF75CFCC7
:1050E00004F2744394EDDE7AD3ED006AC6EE877A5B
:1050F000F5EEC07AF1EE10FAB7EE007A16D4F4EEBF
:10510000477AF1EE10FA77FE277A37EE677AF6EEF5
:10511000006A27EE267A002277EE277A084B83F87A
:105120003821C3ED617A83ED627A10BDDFED057A37
:10513000EBE700BF483C0034B8370034C8370034D0
:10514000A0360034000000000022024B83F8382112
:10515000704700BFA036003438B56F4C94F8385112
:10516000012D33D0022D67D0002D64D104F58C7051
:10517000FEF71FFC694BD4ED617A9A8894ED627A50
:10518000A4F84021A4F860210022C4F8A8219A794B
:10519000186812F0010F624B47FE276A12F0020FE7
:1051A000C3ED496A47FE276A12F0040F47FE277ACB
:1051B000C3ED4A6AC3ED4B7AC4F83C01C4F85C0104
:1051C00084F88C51012384F8383134E004F58C7074
:1051D000FEF7F2FB04F58C70FEF7F5FB58B304F50F
:1051E0009470FEF7E6FB00234E4AC4F87C31C4F805
:1051F00080314D4B07CA83E807000223F7EE007A9F
:10520000BFEE007A94F98C2184F83831434B134473
:105210009B7913F0010F47FE276A13F0020FC4EDCC
:10522000656A47FE276A13F0040F47FE277AC4ED2C
:10523000666AC4ED677A38BD394D94ED667AD5ED6E
:105240002B7AD5ED2A6A67EE877A94ED657AE6EED9
:10525000877A94ED677AD5ED2C6AE6EE877AB6EE1A
:10526000007A67EE877AD4F83431C4ED687A002B7F
:1052700040D194F98C3104EB8303C3ED517A2B4870
:10528000C4ED697AFEF798FB2848FEF79CFB0028DE
:10529000D1D0D4ED5F6A94ED607AC6EE877A94F946
:1052A0008C3104EB8302042BC2ED597A31DC2048A7
:1052B000FEF77FFBD4ED617A94ED627A94F88C313D
:1052C000164A01335BB284F88C3113449B7913F096
:1052D000010F47FE276A13F0020FC5ED496A47FE2A
:1052E000276A13F0040F47FE277AC5ED4A6AC5ED19
:1052F0004B7A67E7D4ED696A94ED5F7AA6EEA67AF9
:1053000084ED5F7A94ED607AA7EEA67A84ED607AF8
:10531000B5E7032357E700BFA0360034810400340B
:10532000C8390034B03B0034EC3A0034C83700349C
:10533000B837003438B52A4C94F83831032B41D1B2
:1053400004F28D1104F59E70FFF770FE04F5AE7047
:1053500004F28F11FFF76AFE94F98F0194F98D31F1
:10536000834230D194F98E3194F99021934214BF45
:105370000523042394F9901184F83831451A032D3C
:1053800094F89021C3B220DD013B05325BB252B2EA
:1053900007EE903A9FED137AF8EEE77A9FED120A46
:1053A000A7EE870A07EE902A9FED107AF8EEE77ACB
:1053B000A7EE870A84F8913184F89221FEF7BAFCAF
:1053C00084ED6A0A38BD0523D4E7091A032902F1DE
:1053D000FF32CCBF053303F1FF3352B25BB2D7E7E4
:1053E000A0360034DB0F493FDB0FC93F920A863EEF
:1053F000094B0A4803F58262D3ED081AD3ED167AF9
:10540000D2ED000A03F20C43B1EE611A60EEA70A76
:1054100093ED000AFEF7E4BA483C0034203700342C
:105420000148FEF7D8BA00BF2037003414491548A8
:10543000D1ED007A90ED107A67EE877A90ED077AD9
:10544000B5EEC07AB7EE006AF1EE10FAFFEE005A40
:10545000D1ED026A26FE256A66EE866A91ED016A42
:10546000094B27EE067AC3ED1C7A77EEA67A77EE23
:10547000877AC3ED1D6A83ED1E7AC3ED1F7A7047EC
:1054800060400034C8390034A036003408B5FFF756
:10549000CDFF074B0748D3ED070AD3ED0E7ABDE8E1
:1054A000084090ED1F1A70EEE70A8030FEF7CDBA83
:1054B000C8390034A036003438B5094D094CFFF71F
:1054C000B5FF95ED1F1AD4ED0E0A94ED070A05F10C
:1054D0008000FEF78EFAD5F89C30E36638BD00BF39
:1054E000A0360034C8390034014B1B69184700BF8F
:1054F000143C0034054B064A93ED017AD2ED007A54
:1055000067EE877AC3ED1D7A704700BFC839003453
:105510009040003408B5FFF7CBFCFDF7A3FFBDE8D2
:105520000840FEF73FB908B5FFF7B0FBBDE80840FB
:10553000FDF77CBF7FB51D4B1D4D93F8303001AC9E
:10554000022B95E807001B4E84E8070029D1336938
:105550009847194B93F818331BB1012B1DD0174BEB
:105560001CE095E8070084E807000023144D85F847
:10557000753185F8763173689847FDF7D7FD94E863
:105580000700104B83E8070095F8013185F80031DA
:10559000B36804B0BDE8704018470B4B93E80700B0
:1055A000E1E7012BE1D1F3689847DEE7083B0034DF
:1055B000B03B0034143C0034483C00344804003410
:1055C000BC420034EC3A003454040034FFF7BCBD54
:1055D00070B501F0FFF800230A4C0B4D6367FDF72F
:1055E00037FE6B689847D4E9370104F1CC03C4F85F
:1055F000E43083E803002B699847AB68BDE870404E
:10560000184700BFC8390034143C003408B5044BB7
:1056100093ED000AFDF7DAFDBDE80840FDF718BE7E
:10562000044100341FB5164B164C1B680093164BF3
:105630000193FDF70DFE94F83433022B03D19DED59
:10564000010A05F0D9FB94F83433BBB90F4B94ED44
:10565000047AD3ED007AD4ED066A27EE277AC7EEF6
:10566000267A94ED057A002377EE877A694601AAB7
:1056700002A8CDED027A039305F08AFC04B010BDB8
:10568000AC3B0034483C0034DB0FC93FAC40003435
:1056900008B50F4B93F800315A1E032A17D8023B66
:1056A000012B10D80B4B93F8342362B993EDF40A15
:1056B000FDF7FAFCFFF7B4FE0022074B5A67BDE87E
:1056C0000840FEF799B8054B93ED000AF0E708BDD6
:1056D000BC420034483C0034C83900340C4100342A
:1056E00038B5244B244D1B68984795F83433234C28
:1056F000012B36D0022B38D0236B6363A36DE36597
:10570000FDF734FD1E4BD4ED1A7A93ED067AF1EED7
:10571000470AF4EEE07AF1EE10FA05D4F4EEC77A17
:10572000F1EE10FA77FE270AD5ED167A95EDBF0A4D
:1057300094ED1D1A20EE270AC4ED1C0AFEF716FB95
:1057400084ED1D0AFFF7A0F90E4B13E9030083E86F
:105750000300FDF78BFD01F095FABDE8384001F03C
:1057600041B8A36A6363236DC9E7E36A6363636D4A
:10577000C5E700BF98040034483C0034C839003401
:10578000603B0034483A003408B506F0EDF8BDE857
:10579000084001F077BA05F0CDBF000010B5074C06
:1057A0006368984705F06EFE054B93F8012183F876
:1057B0000021A368BDE81040184700BF143C003426
:1057C000BC42003408B50C48FEF7F6F80B4B1B68DA
:1057D00098470B4B93F83433012B0A4B15BF1A6BC8
:1057E0009A6A5A635A6314BF9A6D1A6DDA65BDE8F6
:1057F0000840FDF7BBBC00BF1C44003498040034D3
:10580000483C0034C839003410B50D48FEF7D4F8D0
:105810000C4B0D4C1B689847236BD43444F8A03CC8
:1058200054F87C3C44F8783CFDF7A0FC074B93E827
:10583000030084E80300BDE8104001F023BA00BF74
:10584000F843003498040034C8390034583900341F
:105850007FB5194B194D1A4CD3ED160A93EDDD0A9D
:1058600005F5B070FEF798F863689847E3689847C5
:10587000144B154A03F5927607CA86E8070003F130
:10588000DC02C3F8E420114A02AB92E80300104A9C
:1058900083E803001268184669460092019201AA43
:1058A00005F076FBFDF742FC95F8013185F80031F3
:1058B000A368984704B070BD483C0034BC42003433
:1058C000143C0034C8390034B03B0034A43B0034ED
:1058D000AC3B00341FB5114A114C92E80300114A49
:1058E000D4EDF47A92ED017A67EE877A0E4A02AB34
:1058F000126883E8030001921846694601AACDEDBB
:10590000007A05F045FB00F065FFD4ED160A94ED32
:10591000F60A0648FEF740F804B010BDA43B003478
:10592000483C0034C8390034AC3B00340C440034EB
:105930000F4B10B5D3ED6A0A0E4B0F4C93ED000AD6
:1059400005F0CAF90D4B04F59E7003F59862D3ED8E
:10595000160A92ED000AFEF71FF80123084A84F8A0
:105960004C31084B92E8030083E8030010BD00BFF0
:10597000A0360034AC3B0034BC420034483C003418
:10598000A43B0034943A003408B500F067FF0A4B9A
:105990000A4A03F264410968D3ED160AC2F8A0105E
:1059A0000021C2F8A41003F58C6292ED000ABDE854
:1059B00008400348FDF7F0BF483C0034C8390034C4
:1059C000E84300342DE9F041144C154E154DD6ED49
:1059D000160A96EDDC0A04F58E70FDF7DDFF6B68A4
:1059E0009847FDF7A3FB104B104A03F5927707CABF
:1059F00087E807000022DA615A6796F804340D2B15
:105A000004BF0B4BC4F8783194F8013184F80031AD
:105A10002B699847AB68BDE8F0411847BC42003499
:105A2000483C0034143C0034C8390034B03B0034E6
:105A3000D539001208B500F017FF01F023F9BDE8D1
:105A400008400148FDF7B8BFE843003413B51D4CCA
:105A5000D4ED060A94ED050AFDF730FB1A4B1B68DE
:105A6000984794ED160A6846FEF740F8694604F137
:105A7000980204F1BC00FEF79DF800F0B3FE94ED2F
:105A8000077A124BB0EEC77AD3ED006A53ED017A74
:105A9000E7EE267AF5EEC07AF1EE10FA94ED017A8F
:105AA00048BFDFED0B7A67EE277AC4ED287A00F065
:105AB000DBFE01F0E7F8FDF781FB0648FDF77CFF10
:105AC00002B010BDC83900349804003418410034C5
:105AD000000000000C44003410B5134C94ED050A8E
